{"abi":[{"type":"constructor","inputs":[{"name":"_owner","type":"address","internalType":"address"},{"name":"_tokenURIGenerator","type":"address","internalType":"address"}],"stateMutability":"nonpayable"},{"type":"receive","stateMutability":"payable"},{"type":"function","name":"PROXY_TEMPLATE","inputs":[],"outputs":[{"name":"","type":"address","internalType":"contract ProxyFid"}],"stateMutability":"view"},{"type":"function","name":"approve","inputs":[{"name":"to","type":"address","internalType":"address"},{"name":"tokenId","type":"uint256","internalType":"uint256"}],"outputs":[],"stateMutability":"nonpayable"},{"type":"function","name":"balanceOf","inputs":[{"name":"owner","type":"address","internalType":"address"}],"outputs":[{"name":"","type":"uint256","internalType":"uint256"}],"stateMutability":"view"},{"type":"function","name":"claimFid","inputs":[{"name":"_tokenId","type":"uint256","internalType":"uint256"},{"name":"_deadline","type":"uint256","internalType":"uint256"},{"name":"_signature","type":"bytes","internalType":"bytes"}],"outputs":[],"stateMutability":"nonpayable"},{"type":"function","name":"claimed","inputs":[{"name":"","type":"uint256","internalType":"uint256"}],"outputs":[{"name":"","type":"bool","internalType":"bool"}],"stateMutability":"view"},{"type":"function","name":"counter","inputs":[],"outputs":[{"name":"","type":"uint256","internalType":"uint256"}],"stateMutability":"view"},{"type":"function","name":"getApproved","inputs":[{"name":"tokenId","type":"uint256","internalType":"uint256"}],"outputs":[{"name":"","type":"address","internalType":"address"}],"stateMutability":"view"},{"type":"function","name":"getFidFor","inputs":[{"name":"_tokenId","type":"uint256","internalType":"uint256"}],"outputs":[{"name":"","type":"uint256","internalType":"uint256"}],"stateMutability":"view"},{"type":"function","name":"getProxyFor","inputs":[{"name":"_tokenId","type":"uint256","internalType":"uint256"}],"outputs":[{"name":"","type":"address","internalType":"address"}],"stateMutability":"view"},{"type":"function","name":"isApprovedForAll","inputs":[{"name":"owner","type":"address","internalType":"address"},{"name":"operator","type":"address","internalType":"address"}],"outputs":[{"name":"","type":"bool","internalType":"bool"}],"stateMutability":"view"},{"type":"function","name":"mint","inputs":[],"outputs":[{"name":"_tokenId","type":"uint256","internalType":"uint256"}],"stateMutability":"payable"},{"type":"function","name":"mintFor","inputs":[{"name":"_recipient","type":"address","internalType":"address"}],"outputs":[{"name":"_tokenId","type":"uint256","internalType":"uint256"}],"stateMutability":"payable"},{"type":"function","name":"name","inputs":[],"outputs":[{"name":"","type":"string","internalType":"string"}],"stateMutability":"view"},{"type":"function","name":"owner","inputs":[],"outputs":[{"name":"","type":"address","internalType":"address"}],"stateMutability":"view"},{"type":"function","name":"ownerOf","inputs":[{"name":"tokenId","type":"uint256","internalType":"uint256"}],"outputs":[{"name":"","type":"address","internalType":"address"}],"stateMutability":"view"},{"type":"function","name":"price","inputs":[],"outputs":[{"name":"","type":"uint256","internalType":"uint256"}],"stateMutability":"view"},{"type":"function","name":"renounceOwnership","inputs":[],"outputs":[],"stateMutability":"nonpayable"},{"type":"function","name":"safeTransferFrom","inputs":[{"name":"from","type":"address","internalType":"address"},{"name":"to","type":"address","internalType":"address"},{"name":"tokenId","type":"uint256","internalType":"uint256"}],"outputs":[],"stateMutability":"nonpayable"},{"type":"function","name":"safeTransferFrom","inputs":[{"name":"from","type":"address","internalType":"address"},{"name":"to","type":"address","internalType":"address"},{"name":"tokenId","type":"uint256","internalType":"uint256"},{"name":"data","type":"bytes","internalType":"bytes"}],"outputs":[],"stateMutability":"nonpayable"},{"type":"function","name":"setApprovalForAll","inputs":[{"name":"operator","type":"address","internalType":"address"},{"name":"approved","type":"bool","internalType":"bool"}],"outputs":[],"stateMutability":"nonpayable"},{"type":"function","name":"setTokenURIGenerator","inputs":[{"name":"_tokenURIGenerator","type":"address","internalType":"address"}],"outputs":[],"stateMutability":"nonpayable"},{"type":"function","name":"supportsInterface","inputs":[{"name":"interfaceId","type":"bytes4","internalType":"bytes4"}],"outputs":[{"name":"","type":"bool","internalType":"bool"}],"stateMutability":"view"},{"type":"function","name":"symbol","inputs":[],"outputs":[{"name":"","type":"string","internalType":"string"}],"stateMutability":"view"},{"type":"function","name":"tokenByIndex","inputs":[{"name":"index","type":"uint256","internalType":"uint256"}],"outputs":[{"name":"","type":"uint256","internalType":"uint256"}],"stateMutability":"view"},{"type":"function","name":"tokenIdToFid","inputs":[{"name":"","type":"uint256","internalType":"uint256"}],"outputs":[{"name":"","type":"uint256","internalType":"uint256"}],"stateMutability":"view"},{"type":"function","name":"tokenOfOwnerByIndex","inputs":[{"name":"owner","type":"address","internalType":"address"},{"name":"index","type":"uint256","internalType":"uint256"}],"outputs":[{"name":"","type":"uint256","internalType":"uint256"}],"stateMutability":"view"},{"type":"function","name":"tokenURI","inputs":[{"name":"id","type":"uint256","internalType":"uint256"}],"outputs":[{"name":"","type":"string","internalType":"string"}],"stateMutability":"view"},{"type":"function","name":"tokenURIGenerator","inputs":[],"outputs":[{"name":"","type":"address","internalType":"address"}],"stateMutability":"view"},{"type":"function","name":"totalSupply","inputs":[],"outputs":[{"name":"","type":"uint256","internalType":"uint256"}],"stateMutability":"view"},{"type":"function","name":"transferFrom","inputs":[{"name":"from","type":"address","internalType":"address"},{"name":"to","type":"address","internalType":"address"},{"name":"tokenId","type":"uint256","internalType":"uint256"}],"outputs":[],"stateMutability":"nonpayable"},{"type":"function","name":"transferOwnership","inputs":[{"name":"newOwner","type":"address","internalType":"address"}],"outputs":[],"stateMutability":"nonpayable"},{"type":"event","name":"Approval","inputs":[{"name":"owner","type":"address","indexed":true,"internalType":"address"},{"name":"approved","type":"address","indexed":true,"internalType":"address"},{"name":"tokenId","type":"uint256","indexed":true,"internalType":"uint256"}],"anonymous":false},{"type":"event","name":"ApprovalForAll","inputs":[{"name":"owner","type":"address","indexed":true,"internalType":"address"},{"name":"operator","type":"address","indexed":true,"internalType":"address"},{"name":"approved","type":"bool","indexed":false,"internalType":"bool"}],"anonymous":false},{"type":"event","name":"OwnershipTransferred","inputs":[{"name":"previousOwner","type":"address","indexed":true,"internalType":"address"},{"name":"newOwner","type":"address","indexed":true,"internalType":"address"}],"anonymous":false},{"type":"event","name":"Transfer","inputs":[{"name":"from","type":"address","indexed":true,"internalType":"address"},{"name":"to","type":"address","indexed":true,"internalType":"address"},{"name":"tokenId","type":"uint256","indexed":true,"internalType":"uint256"}],"anonymous":false},{"type":"error","name":"CallFailed","inputs":[]},{"type":"error","name":"ERC721EnumerableForbiddenBatchMint","inputs":[]},{"type":"error","name":"ERC721IncorrectOwner","inputs":[{"name":"sender","type":"address","internalType":"address"},{"name":"tokenId","type":"uint256","internalType":"uint256"},{"name":"owner","type":"address","internalType":"address"}]},{"type":"error","name":"ERC721InsufficientApproval","inputs":[{"name":"operator","type":"address","internalType":"address"},{"name":"tokenId","type":"uint256","internalType":"uint256"}]},{"type":"error","name":"ERC721InvalidApprover","inputs":[{"name":"approver","type":"address","internalType":"address"}]},{"type":"error","name":"ERC721InvalidOperator","inputs":[{"name":"operator","type":"address","internalType":"address"}]},{"type":"error","name":"ERC721InvalidOwner","inputs":[{"name":"owner","type":"address","internalType":"address"}]},{"type":"error","name":"ERC721InvalidReceiver","inputs":[{"name":"receiver","type":"address","internalType":"address"}]},{"type":"error","name":"ERC721InvalidSender","inputs":[{"name":"sender","type":"address","internalType":"address"}]},{"type":"error","name":"ERC721NonexistentToken","inputs":[{"name":"tokenId","type":"uint256","internalType":"uint256"}]},{"type":"error","name":"ERC721OutOfBoundsIndex","inputs":[{"name":"owner","type":"address","internalType":"address"},{"name":"index","type":"uint256","internalType":"uint256"}]},{"type":"error","name":"OwnableInvalidOwner","inputs":[{"name":"owner","type":"address","internalType":"address"}]},{"type":"error","name":"OwnableUnauthorizedAccount","inputs":[{"name":"account","type":"address","internalType":"address"}]}],"bytecode":{"object":"0x60a034620004455762002f4290601f19601f6001600160401b03388590038281018416850190828211868310176200042f5780869160409889948552833981010312620004455762000051846200044a565b926200006160208096016200044a565b906200006c6200045f565b90620000776200045f565b948251958587116200042f576000968754946001958681811c9116801562000424575b8c8210146200041057908b8286859411620003ba575b50508b9085831160011462000357578a926200034b575b5050600019600383901b1c191690851b1787555b805192868411620003375784548581811c911680156200032c575b8b82101462000318579081848695949311620002c1575b508a928411600114620002605750879262000254575b5050600019600383901b1c191690821b1790555b6001600160a01b039384169384156200023c57600a549160018060a01b0319958087851617600a5582895194167f8be0079c531659141344cd1fd0a4f28419497f9722a3daafe3b4186f6b6457e08780a31694851562000206575050845190610d0580830191821183831017620001f2579082916200223d8339039082f0908115620001e75750608052600b541617600b5551611da790816200049682396080518181816101d501526116a40152f35b8451903d90823e3d90fd5b634e487b7160e01b84526041600452602484fd5b62461bcd60e51b82526004820152601260248201527110ba37b5b2b72aa924a3b2b732b930ba37b960711b604482015260649150fd5b8651631e4fbdf760e01b815260048101859052602490fd5b01519050388062000123565b8589528a892086959093929116895b8c828210620002aa575050841162000290575b505050811b01905562000137565b015160001960f88460031b161c1916905538808062000282565b83850151865588979095019493840193016200026f565b90919293508589528a89208480870160051c8201928d88106200030e575b9187968992969594930160051c01915b828110620002ff5750506200010d565b8b8155879650889101620002ef565b92508192620002df565b634e487b7160e01b89526022600452602489fd5b90607f1690620000f6565b634e487b7160e01b88526041600452602488fd5b015190503880620000c7565b908c91878995168c8052838d20938d905b828210620003a2575050841162000388575b505050811b018755620000db565b015160001960f88460031b161c191690553880806200037a565b8385015186558b979095019493840193018f62000368565b909192508a805285828c209181860160051c830193861062000406575b918991869594930160051c01915b828110620003f757508d9150620000b0565b8c8155859450899101620003e5565b92508192620003d7565b634e487b7160e01b8a52602260045260248afd5b90607f16906200009a565b634e487b7160e01b600052604160045260246000fd5b600080fd5b51906001600160a01b03821682036200044557565b60408051919082016001600160401b038111838210176200042f576040526009825268466f6c64537061636560b81b602083015256fe608060409080825260049081361015610063575b50361561001f57600080fd5b6010546001600160a01b0316330361003357005b6020606492519162461bcd60e51b8352820152600b60248201526a08585d5d1a1bdc9a5e995960aa1b6044820152fd5b600090813560e01c90816301ffc9a714610f4c5750806304e618ce14610ec857806306fdde0314610dfa578063081812fc14610dbd578063095ea7b314610ce15780631249c58b14610cc857806318160ddd14610ca957806323b872dd14610c915780632f745c5914610c0c5780633f0b49c814610b9557806342842e0e14610bbe578063466a854914610b955780634f6ccce714610b3f57806361bc221a14610b205780636352211e14610aee57806370a0823114610ac8578063715018a614610a6b57806371e578dc14610a435780637279b46514610a0f5780638da5cb5b146109e657806395d89b41146108cb578063a035b1fe1461083b578063a143c66f14610812578063a22cb46514610775578063b88d4fde146106ec578063c87b56dd1461058f578063d85df29814610317578063dbe7e3bd146102e9578063e985e9c514610299578063f2fde38b146102085763f4fd2f3003610013578234610204578160031936011261020457517f00000000000000000000000000000000000000000000000000000000000000006001600160a01b03168152602090f35b5080fd5b5091903461029557602036600319011261029557610224610fd2565b9061022d61157d565b6001600160a01b0391821692831561027f575050600a54826001600160601b0360a01b821617600a55167f8be0079c531659141344cd1fd0a4f28419497f9722a3daafe3b4186f6b6457e0600080a380f35b51631e4fbdf760e01b8152908101849052602490fd5b8280fd5b5082346102045780600319360112610204576020916102b6610fd2565b826102bf610fed565b9260018060a01b03809316815260058652209116600052825260ff81600020541690519015158152f35b50919034610295576020366003190112610295578160209360ff92358152600f855220541690519015158152f35b508234610204576060366003190112610204578235926024936044359167ffffffffffffffff9081841161058b573660238501121561058b5783810135918083116105875736888487010111610587576001600160a01b0394338661037b876115a9565b160361054e57848852602095600f875260ff888a20541661050c578751636ca7f41960e11b8152338582015287818c816ffc6c5f01fc30151999387bb99a9f489b5afa908115610502578a916104d1575b5061048f57858952600d8752878920541690813b1561048b5788918a83608488948c51998a9687958693633171aed560e11b8552338d8601528135828601526060604486015282606486015201848401378181018301849052601f01601f191681010301925af1801561048157610457575b5050508352600f90528120805460ff1916600117905580f35b829693961161046f575083529293508385808061043e565b634e487b7160e01b8352604190528582fd5b86513d89823e3d90fd5b8880fd5b875162461bcd60e51b8152808501889052601f818c01527f466f6c6453706163653a20555345525f414c52454144595f4841535f464944006044820152606490fd5b90508781813d83116104fb575b6104e88183611080565b810103126104f757518b6103cc565b8980fd5b503d6104de565b89513d8c823e3d90fd5b875162461bcd60e51b8152808501889052601a818c01527f466f6c6453706163653a20414c52454144595f434c41494d45440000000000006044820152606490fd5b865162461bcd60e51b81526020818501526014818b0152732337b63229b830b1b29d102727aa2fa7aba722a960611b6044820152606490fd5b8680fd5b8580fd5b50913461029557602091826003193601126106e857803580156106e457600c5481116106b857600b54818652600e855283862054600f86528487205485516330cd57bb60e21b815294850193909352602484015260ff909116151560448301528490829060649082906001600160a01b03165afa9384156106ad57809461062a575b50506106269051928284938452830190611026565b0390f35b909193503d8082843e61063d8184611080565b82019183818403126102045780519067ffffffffffffffff8211610295570182601f8201121561020457805191610673836110b8565b9361068087519586611080565b8385528584840101116106aa575082916106a291858061062696019101611003565b929038610611565b80fd5b8251903d90823e3d90fd5b5082606492519162461bcd60e51b835282015260076024820152662165786973747360c81b6044820152fd5b8480fd5b8380fd5b50913461029557608036600319011261029557610707610fd2565b61070f610fed565b846064359467ffffffffffffffff86116102045736602387011215610204578501359461074761073e876110b8565b95519586611080565b858552366024878301011161020457856107729660246020930183880137850101526044359161142e565b80f35b50913461029557806003193601126102955761078f610fd2565b90602435918215158093036106e4576001600160a01b03169283156107fd5750338452600560205280842083855260205280842060ff1981541660ff8416179055519081527f17307eab39ab6107e8899845ad3d59bd9653f200f220920489ca2b5937696c3160203392a380f35b836024925191630b61174360e31b8352820152fd5b508234610204578160031936011261020457600b5490516001600160a01b039091168152602090f35b50913461029557826003193601126102955760208151809363501ad8ff60e11b8252816ffc25870c6ed6b6c7e41fb078b7656f695afa9182156108c1578392610889575b6020838351908152f35b9091506020813d6020116108b9575b816108a560209383611080565b81010312610295576020925051903861087f565b3d9150610898565b81513d85823e3d90fd5b508290346106aa57806003193601126106aa5781519181600192600154938460011c91600186169586156109dc575b60209687851081146109c9578899509688969785829a5291826000146109a2575050600114610946575b5050506106269291610937910385611080565b51928284938452830190611026565b9190869350600183527fb10e2d527612073b26eecdfd717e6a320cf44b4afac2b0732d9fcbe2b7fa0cf65b82841061098a5750505082010181610937610626610924565b8054848a018601528895508794909301928101610971565b60ff19168782015293151560051b8601909301935084925061093791506106269050610924565b634e487b7160e01b835260228a52602483fd5b92607f16926108fa565b508234610204578160031936011261020457600a5490516001600160a01b039091168152602090f35b5091903461029557602036600319011261029557358252600d6020908152918190205490516001600160a01b039091168152f35b5082602036600319011261020457602090610a64610a5f610fd2565b6115e4565b9051908152f35b50346106aa57806003193601126106aa57610a8461157d565b600a80546001600160a01b0319811690915581906001600160a01b03167f8be0079c531659141344cd1fd0a4f28419497f9722a3daafe3b4186f6b6457e08280a380f35b50823461020457602036600319011261020457602090610a64610ae9610fd2565b6113f5565b508290346106aa5760203660031901126106aa5750610b0f602092356115a9565b90516001600160a01b039091168152f35b508234610204578160031936011261020457602090600c549051908152f35b5091903461029557602036600319011261029557803592600854841015610b7a57602083610b6c866113a8565b91905490519160031b1c8152f35b6044939192519263295f44f760e21b84528301526024820152fd5b50919034610295576020366003190112610295576020928291358152600e845220549051908152f35b50823461020457610bce3661104b565b91835193602085019085821067ffffffffffffffff831117610bf9576107729697505285845261142e565b634e487b7160e01b875260418852602487fd5b508290346106aa57816003193601126106aa57610c27610fd2565b9260243590610c35856113f5565b821015610c6557506001600160a01b03909316815260066020908152828220938252928352819020549051908152f35b925163295f44f760e21b81526001600160a01b0390941692840192835260208301525081906040010390fd5b50346106aa57610772610ca33661104b565b916110d4565b5082346102045781600319360112610204576020906008549051908152f35b50828160031936011261020457602090610a64336115e4565b509134610295578060031936011261029557610cfb610fd2565b91602435610d08816115a9565b33151580610daa575b80610d81575b610d6b576001600160a01b039485169482918691167f8c5be1e5ebec7d5bd14f71427d1e84f3dd0314c0f7b2291e5b200ac8c7c3b9258880a48452602052822080546001600160a01b031916909117905580f35b835163a9fbf51f60e01b81523381850152602490fd5b506001600160a01b03811686526005602090815284872033885290528386205460ff1615610d17565b506001600160a01b038116331415610d11565b5091903461029557602036600319011261029557918260209335610de0816115a9565b50825283528190205490516001600160a01b039091168152f35b508290346106aa57806003193601126106aa578151918182549260018460011c9160018616958615610ebe575b60209687851081146109c9578899509688969785829a5291826000146109a2575050600114610e63575050506106269291610937910385611080565b91908693508280527f290decd9548b62a8d60345a988386fc84ba6bc95484008f6362f93160ef3e5635b828410610ea65750505082010181610937610626610924565b8054848a018601528895508794909301928101610e8d565b92607f1692610e27565b5091903461029557602036600319011261029557610ee4610fd2565b610eec61157d565b6001600160a01b0316918215610f145750506001600160601b0360a01b600b541617600b5580f35b906020606492519162461bcd60e51b8352820152601260248201527110ba37b5b2b72aa924a3b2b732b930ba37b960711b6044820152fd5b90508234610295576020366003190112610295573563ffffffff60e01b8116809103610295576020925063780e9d6360e01b8114908115610f8f575b5015158152f35b6380ac58cd60e01b811491508115610fc1575b8115610fb0575b5083610f88565b6301ffc9a760e01b14905083610fa9565b635b5e139f60e01b81149150610fa2565b600435906001600160a01b0382168203610fe857565b600080fd5b602435906001600160a01b0382168203610fe857565b60005b8381106110165750506000910152565b8181015183820152602001611006565b9060209161103f81518092818552858086019101611003565b601f01601f1916010190565b6060906003190112610fe8576001600160a01b03906004358281168103610fe857916024359081168103610fe8579060443590565b90601f8019910116810190811067ffffffffffffffff8211176110a257604052565b634e487b7160e01b600052604160045260246000fd5b67ffffffffffffffff81116110a257601f01601f191660200190565b6001600160a01b038281169391841561138f57600094838652602095600287526040968488832054169633151580611301575b50871580156112ce575b84845260038352898420805460010190558784526002835289842080546001600160a01b0319168617905587858a7fddf252ad1be2c89b69c2b068fc378daa952ba7f163c4a11628f55a4df523b3ef8780a4156112525760085487845260098352808a852055600160401b81101561123e57876111978260016111b094016008556113a8565b90919082549060031b91821b91600019901b1916179055565b8388036111ec575b5050505016928383036111cb5750505050565b6064945051926364283d7b60e01b8452600484015260248301526044820152fd5b6111f5906113f5565b60001981019390841161122a5782916007918a94526006815283832085845281528784842055878352522055388080806111b8565b634e487b7160e01b83526011600452602483fd5b634e487b7160e01b84526041600452602484fd5b8784146111b057611262886113f5565b8784526007835289842054818103611297575b50878452838a81205588845260068352898420908452825282898120556111b0565b898552600684528a852082865284528a8520548a8652600685528b86208287528552808c8720558552600784528a85205538611275565b600088815260046020526040902080546001600160a01b0319169055888452600383528984208054600019019055611111565b8061134e575b156113125738611107565b88878961132f576024915190637e27328960e01b82526004820152fd5b905163177e802f60e01b81523360048201526024810191909152604490fd5b503388148015611373575b8061130757508683526004825233868a8520541614611307565b5087835260058252888320338452825260ff8984205416611359565b604051633250574960e11b815260006004820152602490fd5b6008548110156113df5760086000527ff3f7a9fe364faab93b216da50a3214154f22a0a2b415b23a84c8169e8b636ee30190600090565b634e487b7160e01b600052603260045260246000fd5b6001600160a01b0316801561141557600052600360205260406000205490565b6040516322718ad960e21b815260006004820152602490fd5b6114398383836110d4565b813b611446575b50505050565b604051630a85bd0160e11b8082523360048301526001600160a01b03928316602483015260448201949094526080606482015260209592909116939092908390611494906084830190611026565b039285816000958187895af184918161153d575b50611508575050503d600014611500573d6114c2816110b8565b906114d06040519283611080565b81528091843d92013e5b805192836114fb57604051633250574960e11b815260048101849052602490fd5b019050fd5b5060606114da565b919450915063ffffffff60e01b1603611525575038808080611440565b60249060405190633250574960e11b82526004820152fd5b9091508681813d8311611576575b6115558183611080565b810103126106e457516001600160e01b0319811681036106e45790386114a8565b503d61154b565b600a546001600160a01b0316330361159157565b60405163118cdaa760e01b8152336004820152602490fd5b6000818152600260205260409020546001600160a01b03169081156115cc575090565b60249060405190637e27328960e01b82526004820152fd5b6040805163501ad8ff60e11b815260209260049291848185816ffc25870c6ed6b6c7e41fb078b7656f695afa908115611afb57600091611b48575b503410611b06578151631d61156560e31b815290848285816ffc6c5f01fc30151999387bb99a9f489b5afa918215611afb57600092611acc575b5060018201809211611ab757600c549460018601809611611aa2578351637a20faef60e01b8152858101879052336024808301919091526001600160a01b03939091838160448160007f00000000000000000000000000000000000000000000000000000000000000008a165af1908115611a9757908591600091611a5c575b5016906116e68933611b75565b6001600160601b0360a01b92828460105416176010558751956353559b7960e11b87528a8a8801528782880152306044880152888760648134885af1978815611a51576000978899611a1b575b50856010541660105587036119d95733818416036117a3575b50505090600e929188600052600d835286600020918254161790555282600020556001600c5401600c5580611782575b50505090565b600080808093335af115611796578061177c565b51633204506f60e01b8152fd5b8a600052600286528860002054168015908115806119a6575b8c600052600288528a6000208781541690558c6000837fddf252ad1be2c89b69c2b068fc378daa952ba7f163c4a11628f55a4df523b3ef8280a482156119135750506008548b60005260098752808a60002055600160401b8110156118ff578b61119782600161182f94016008556113a8565b600854600019908181019081116118eb578c600052600988526118568b60002054916113a8565b90549060031b1c61186a81611197846113a8565b600052600988528a600020558b60005260008a81205560085480156118d757810190611895826113a8565b909182549160031b1b191690556008556118c35750906118b989600e959493611b75565b909192388061174c565b8751637e27328960e01b8152808a018b9052fd5b8360318d634e487b7160e01b600052526000fd5b8360118d634e487b7160e01b600052526000fd5b8260418c634e487b7160e01b600052526000fd5b61191e575b5061182f565b611927816113f5565b908c600052600788528a60002054828103611965575b508c60005260008b812055600052600687528960002090600052865260008981205538611918565b81600052600689528b6000208360005289528b600020548260005260068a528c600020826000528a52808d60002055600052600789528b600020553861193d565b60008d815260046020526040812080546001600160a01b0319169055828152600389528b902080546000190190556117bc565b885162461bcd60e51b8152808b018790526019818401527f466f6c6453706163653a20554e45585045435445445f464944000000000000006044820152606490fd5b979098508988813d8311611a4a575b611a348183611080565b810103126106aa57508587519701519738611733565b503d611a2a565b89513d6000823e3d90fd5b9091508481813d8311611a90575b611a748183611080565b8101031261020457519085821682036106aa57508490386116d9565b503d611a6a565b87513d6000823e3d90fd5b601185634e487b7160e01b6000525260246000fd5b601184634e487b7160e01b6000525260246000fd5b9091508481813d8311611af4575b611ae48183611080565b81010312610fe857519038611659565b503d611ada565b83513d6000823e3d90fd5b5091606492519162461bcd60e51b8352820152601960248201527f466f6c6453706163653a20494e56414c49445f414d4f554e54000000000000006044820152fd5b90508481813d8311611b6e575b611b5f8183611080565b81010312610fe857513861161f565b503d611b55565b6001600160a01b0390808216801561138f57600093808552602090600282526040948587205416938415948486159687611d3e575b818a5260038652888a2080546001019055848a5260028652888a2080546001600160a01b031916831790558482847fddf252ad1be2c89b69c2b068fc378daa952ba7f163c4a11628f55a4df523b3ef8d80a415611cc157506008548389526009855280888a2055600160401b811015611cad5790611c33846111978460018a96016008556113a8565b03611c5c575b50505050611c45575050565b6024925051906339e3563760e11b82526004820152fd5b611c65906113f5565b600019810193908411611c995786526006825284862083875282528486208190558552600790528284205538808080611c39565b634e487b7160e01b87526011600452602487fd5b634e487b7160e01b89526041600452602489fd5b90808214611c3357611cd2816113f5565b848a5260078652888a2054818103611d07575b50848a528989812055818a5260068652888a20908a5285528888812055611c33565b828b5260068752898b20828c528752898b2054838c52600688528a8c20828d528852808b8d20558b5260078752898b205538611ce5565b600085815260046020526040902080546001600160a01b0319169055828a5260038652888a208054600019019055611baa56fea2646970667358221220d93280926a74b46364e7474591d41e6399daecaaff9b110893e1bc15fc62f6dc64736f6c6343000816003360a080604052346100e05733608052600160ff1960005416176000557ff0c57e16840df040f15088dc2f81fe391c3923bec73e23a9662efc9c229c6a009081549060ff8260401c166100d157506001600160401b036002600160401b03198282160161008c575b604051610c1f90816100e68239608051818181610132015281816103d701526106870152f35b6001600160401b031990911681179091556040519081527fc7f505b2f371ae2175ee4913f4499e1f2633a7b5936321eed1cdaeb6115181d290602090a1388080610066565b63f92ee8a960e01b8152600490fd5b600080fdfe608060409080825260049081361015610068575b50361561001f57600080fd5b336ffc25870c6ed6b6c7e41fb078b7656f690361003857005b6020606492519162461bcd60e51b8352820152600b60248201526a08585d5d1a1bdc9a5e995960aa1b6044820152fd5b600090813560e01c908163019c08f5146108d4575080631626ba7e146106f95780632ee5001f1461065f5780633257b4f31461064057806362e35daa146104bd5780636e9c733d146104915780636f392ce71461046f5780637a20faef1461039f5780638da5cb5b14610371578063a6ab36f214610161578063dd8501ef1461011d5763e834a8340361001357823461011957816003193601126101195760ff6020925460081c1690519015158152f35b5080fd5b508234610119578160031936011261011957517f00000000000000000000000000000000000000000000000000000000000000006001600160a01b03168152602090f35b5090606036600319011261011957604435906001600160a01b038216820361036c577ff0c57e16840df040f15088dc2f81fe391c3923bec73e23a9662efc9c229c6a009081549060ff82871c16159167ffffffffffffffff811680159081610364575b600114908161035a575b159081610351575b506103425767ffffffffffffffff198116600117845582610323575b50803560015560248035600255855462010000600160b01b031916601086901b62010000600160b01b03161786558651632210724360e11b815280830187905295908790879081346ffc25870c6ed6b6c7e41fb078b7656f695af194851561031757819682966102de575b5085806102bb575b5050505061027b575b5082519182526020820152f35b68ff00000000000000001981541690557fc7f505b2f371ae2175ee4913f4499e1f2633a7b5936321eed1cdaeb6115181d26020845160018152a13861026e565b8280929181925af1156102d057808085610265565b8551633204506f60e01b8152fd5b965094508686813d8111610310575b6102f78183610922565b8101031261030d5760208651960151943861025d565b80fd5b503d6102ed565b508651903d90823e3d90fd5b68ffffffffffffffffff191668010000000000000001178355386101f2565b50855163f92ee8a960e01b8152fd5b905015386101d6565b303b1591506101ce565b8491506101c4565b600080fd5b50823461011957816003193601126101195760209061038e6109b8565b90516001600160a01b039091168152f35b5082903461030d578160031936011261030d576103ba610960565b906103c860ff825416610976565b6001600160a01b039161040b907f0000000000000000000000000000000000000000000000000000000000000000906104043386841614610976565b8635610a50565b83516020810191825260208152610421816108f0565b5190209061042e30610aa3565b9081511561045f5760208251920190f516908115610450576020925051908152f35b51633a0ba96160e11b81529050fd5b8451631328927760e21b81528690fd5b50823461011957816003193601126101195760ff602092541690519015158152f35b5082346101195781600319360112610119579054905160109190911c6001600160a01b03168152602090f35b50913461063c57606036600319011261063c576001600160a01b0391803583811691908290036106385760249167ffffffffffffffff9060443582811161063457366023820112156106345780840135968388116106305736868984010111610630576105328954918260101c163314610976565b60ff8160081c166105ee5761ff0019166101001788558791906ffc6c5f01fc30151999387bb99a9f489b90813b156105ea5783608488948b8b519c8d9788968794635f22feb160e11b86528d8601528135828601526060604486015282606486015201848401378181018301849052601f01601f191681010301925af180156105e0576105bd578580f35b84116105cf5750505238808080808580f35b634e487b7160e01b85526041905283fd5b84513d88823e3d90fd5b8380fd5b865162461bcd60e51b81526020818701526019818801527f50726f78794669643a20414c52454144595f434c41494d4544000000000000006044820152606490fd5b8880fd5b8780fd5b8480fd5b8280fd5b5082346101195781600319360112610119576020906002549051908152f35b5082903461030d578160031936011261030d57506055600b6106ad602094610685610960565b7f00000000000000000000000000000000000000000000000000000000000000009135610a50565b83518581019182528581526106c1816108f0565b5190206106cd30610aa3565b8581519101209084519185830152858201523081520160ff81532090516001600160a01b039091168152f35b5082903461030d578160031936011261030d5760243592803567ffffffffffffffff851161063c573660238601121561063c578482013561073981610944565b9061074686519283610922565b80825260209636602483830101116108d05781869260248a930183860137830101526107706109b8565b9061077b8184610b1d565b509094808210156108bd57501593846108a7575b5083156107c3575b5050506000146107bd5750630b135d3f60e11b905b516001600160e01b03199091168152f35b906107ac565b9192508390855187810190630b135d3f60e11b95868352602482015287604482015284519485606483015289855b87811061089057505050610821608482878783819a84010152601f80199101168101036064810184520182610922565b51915afa903d15610889573d61083681610944565b9061084386519283610922565b81523d848783013e5b8261087c575b82610862575b5050848080610797565b909150848180518101031261063c57840151148480610858565b9150848251101591610852565b606061084c565b8083018201518185016084015289965081016107f1565b6001600160a01b0383811691161493508761078f565b634e487b7160e01b875260219052602486fd5b8580fd5b9050346101195781600319360112610119576020906001548152f35b6040810190811067ffffffffffffffff82111761090c57604052565b634e487b7160e01b600052604160045260246000fd5b90601f8019910116810190811067ffffffffffffffff82111761090c57604052565b67ffffffffffffffff811161090c57601f01601f191660200190565b602435906001600160a01b038216820361036c57565b1561097d57565b60405162461bcd60e51b8152602060048201526013602482015272283937bc3ca334b21d102327a92124a22222a760691b6044820152606490fd5b600080546001546040516331a9108f60e11b81526004810191909152916001600160a01b03916020908490602490829060101c86165afa928315610a43578193610a03575b50505090565b909192506020813d602011610a3b575b81610a2060209383610922565b810103126101195751918216820361030d57503880806109fd565b3d9150610a13565b50604051903d90823e3d90fd5b919060405191602083019384526bffffffffffffffffffffffff19809260601b16604084015260601b166054820152604881526080810181811067ffffffffffffffff82111761090c5760405251902090565b604051693d602d80600a3d3981f360b01b602082015269363d3d373d3d3d363d7360b01b602a820152606091821b6bffffffffffffffffffffffff191660348201526e5af43d82803e903d91602b57fd5bf360881b60488201526037815290810167ffffffffffffffff81118282101761090c5760405290565b8151919060418303610b4e57610b4792506020820151906060604084015193015160001a90610b59565b9192909190565b505060009160029190565b91907f7fffffffffffffffffffffffffffffff5d576e7357a4501ddfe92f46681b20a08411610bdd57926020929160ff608095604051948552168484015260408301526060820152600092839182805260015afa15610bd15780516001600160a01b03811615610bc857918190565b50809160019190565b604051903d90823e3d90fd5b5050506000916003919056fea264697066735822122082e9b64502cb02b99f5f35fd0d889cd9a32c40c7211254ffcaf67c00698913af64736f6c63430008160033","linkReferences":{}},"methodIdentifiers":{"PROXY_TEMPLATE()":"f4fd2f30","approve(address,uint256)":"095ea7b3","balanceOf(address)":"70a08231","claimFid(uint256,uint256,bytes)":"d85df298","claimed(uint256)":"dbe7e3bd","counter()":"61bc221a","getApproved(uint256)":"081812fc","getFidFor(uint256)":"466a8549","getProxyFor(uint256)":"7279b465","isApprovedForAll(address,address)":"e985e9c5","mint()":"1249c58b","mintFor(address)":"71e578dc","name()":"06fdde03","owner()":"8da5cb5b","ownerOf(uint256)":"6352211e","price()":"a035b1fe","renounceOwnership()":"715018a6","safeTransferFrom(address,address,uint256)":"42842e0e","safeTransferFrom(address,address,uint256,bytes)":"b88d4fde","setApprovalForAll(address,bool)":"a22cb465","setTokenURIGenerator(address)":"04e618ce","supportsInterface(bytes4)":"01ffc9a7","symbol()":"95d89b41","tokenByIndex(uint256)":"4f6ccce7","tokenIdToFid(uint256)":"3f0b49c8","tokenOfOwnerByIndex(address,uint256)":"2f745c59","tokenURI(uint256)":"c87b56dd","tokenURIGenerator()":"a143c66f","totalSupply()":"18160ddd","transferFrom(address,address,uint256)":"23b872dd","transferOwnership(address)":"f2fde38b"},"id":41}